:10000000A5C0D5C6C8C0C7C05AC4C5C0C4C0C3C037
:10001000C2C0C1C0C0C007C7BEC0BDC0BCC0BBC09D
:10002000BAC0B9C0B8C0B7C0B6C0B5C0BEC8B3C00A
:10003000B2C0B1C0EFC8AFC0AEC0ADC0005EBCE2E0
:10004000613FDD83C29C7E20A3FD1F419DC3217FB4
:10005000FCA2401E5F01E3BD3E6082DC237D9FC1A8
:10006000421CFEA0E1BF5D0380DE3C62BEE0025C9C
:10007000DF81633D7C22C09E1D43A1FF4618FAA488
:1000800027799BC584DA3866E5BB5907DB85673974
:10009000BAE406581947A5FB7826C49A653BD98768
:1000A000045AB8E6A7F91B45C6987A24F8A6441A5C
:1000B00099C7257B3A6486D85B05E7B98CD2306E48
:1000C000EDB3510F4E10F2AC2F7193CD114FADF334
:1000D000702ECC92D38D6F31B2EC0E50AFF1134D28
:1000E000CE90722C6D33D18F0C52B0EE326C8ED01C
:1000F000530DEFB1F0AE4C1291CF2D73CA94762808
:10010000ABF517490856B4EA6937D58B5709EBB5F3
:1001100036688AD495CB2977F4AA4816E9B7550BE7
:1001200088D6346A2B7597C94A14F6A8742AC896DB
:10013000154BA9F7B6E80A54D7896B35010204803C
:100140004020100804020108BC02A00911241FBEAF
:10015000CFEFD2E0DEBFCDBF11E0A0E0B1E0ECE92F
:10016000FFE102C005900D92A033B107D9F722E05C
:10017000A0E3B1E001C01D92A533B207E1F710E0A2
:10018000C6EAD0E003C02197FE0138DCC43AD107AB
:10019000D1F708DA01CF34CF809136019091370141
:1001A00001969093370180933601089580917000F5
:1001B0008E7F8093700087E885B918B88DE089B983
:1001C00062E070E080E090E09ED62E9A2C9BFECFFD
:1001D0002C9A26B187B130E0382B40E050E064EB38
:1001E0007BE281E190E0DADBC901089561E082E021
:1001F000E7D661E083E0E4D661E084E0E1D661E047
:1002000080E0DED660E080E01BD788E780934E0177
:1002100067E086E491E0B4D126E040E056E960E092
:1002200070E086ED91E02BD860ED77E080E090E023
:100230006AD686ED91E01FD966E071E086ED91E027
:100240002CC962E081E0BCD661E081E0F9D661E0D2
:1002500080E0B6D661E080E0F3D668EE73E080E03F
:1002600090E051D6109237011092360142E050E0F2
:100270006CEC70E080E080D566EE73E080E090E0AA
:1002800042D62091360130913701109237011092F9
:1002900036018091340190913501820F931F8217AE
:1002A000930711F0969587959093350180933401CB
:1002B00060E080E0C5D680E070D560913401709137
:1002C000350180E090E00BDA0895CF92DF92EF9253
:1002D000FF920F931F93CF93DF93CDB7DEB7A29713
:1002E0000FB6F894DEBF0FBECDBFCD8ADE8AEF8A8F
:1002F000F88E098F1A8F2B8F3C8F4D8F5E8F6F8FEB
:1003000078A389A39AA341E0BE01635F7F4FCE012A
:10031000459694D4811109C0CE01459663D46AEF05
:1003200070E080E090E0EFD55EC067E0CE010D9612
:1003300016D59C89891357C0CE01459639D3BE0185
:10034000635F7F4FCE01459622D441E064E4CE0145
:100350004596C1D368EE73E080E090E0D4D5CE013D
:10036000459626D3BE01635F7F4FCE0145960FD4DD
:1003700040E06EEBCE014596AED38E010F5F1F4F6E
:1003800099E0F92EF00ECE014596E6D3F80181935F
:100390008F01FE12F8CF6A8170E0762F662789817F
:1003A000682B8D81807611F4687F07C0803211F44C
:1003B0006C7F03C0803409F46E7F072E000C880B1D
:1003C000990B8FD920E030E040E85DE33ADA7B0119
:1003D0008C019B01AC01A0DA882351F02DEC7CEC60
:1003E00087EC92EC08C02DEC7CEC84E491E403C033
:1003F0002E2D7F2DC801C22ED72E7C01C701B6013C
:10040000A2960FB6F894DEBF0FBECDBFDF91CF919D
:100410001F910F91FF90EF90DF90CF900895CF92B2
:10042000DF92EF92FF920F931F93CF93DF936AE0D7
:1004300071E086ED91E031D86EEE72E080E090E000
:1004400062D561E083E0FCD5FCDE609330017093FF
:100450003101809332019093330160E083E0F0D565
:1004600061E084E0EDD5C0903801D0903901E09092
:100470003A01F0903B0100913C0110913D01209127
:100480003E0130913F014091400150914101609106
:10049000420170914301809144019091450115DF23
:1004A0006B017C0160E084E0CBD580DE8C0165E1EE
:1004B00071E086ED91E0D7D74AE050E0B80186EDD3
:1004C00091E05CD8C6E4D1E088E78887C882D98209
:1004D000EA82FB82CE01CDD161E082E0B1D561E05C
:1004E00070E0CE01D6D160E082E0AAD520E030E015
:1004F0004AE754E4609130017091310180913201FA
:100500009091330153D86C837D838E839F83CE017A
:10051000B8D161E082E094D561E070E0CE01B9D15C
:1005200060E082E08DD561E082E08AD589E7888746
:10053000B80180E090E0D3D820E030E04AE754E40E
:1005400035D86C837D838E839F83CE019AD160E002
:1005500082E076D564EF71E080E090E0D4D462E090
:1005600070E083EB91E0DF91CF911F910F91FF90AD
:10057000EF90DF90CF9003C26AE088E391E03EC342
:1005800087E01ED560E087E05BC561E087E058D575
:100590008091040190910501DAD460E087E050D5A4
:1005A0008091000190910101D2C461E087E048D5BB
:1005B0008091020190910301CAD460E087E040D5A8
:1005C0008091000190910101C2C410925A011092D1
:1005D00059012AE030E03093580120935701FC0183
:1005E0008085A82FA695A695A695B0E0B093540156
:1005F000A0935301877090E0609161017091620156
:1006000040915F0150916001E0915D01F0915E01C8
:100610009D01280F391F260F371F240F351F2E0F5E
:100620003F1F260F371F240F351F217033273093AC
:10063000500120934F01880F991F820F931F9093B1
:100640005201809351012091550130915601265F4E
:100650003F4FA20FB31F8A0F9B1F860F971F840F58
:10066000951F8E0F9F1F680F791F460F571F4F70E2
:10067000552750935C0140935B0108950F931F939E
:10068000CF93DF93EC01162F072F63FF02C08DDF9E
:1006900001C07BDFCE0112FF02C087DF01C075DF22
:1006A000CE0111FF02C081DF01C06FDFCE0110FF5C
:1006B00002C07BDF01C069DF0F931F938DE191E0E2
:1006C0009F938F9383E691E09F938F939DD90F9093
:1006D0000F900F900F900F900F90DF91CF911F917F
:1006E0000F9108950F931F93CF93DF93EC016DDF6C
:1006F00003E010E06091590170915A01CE01BEDF14
:100700006091570170915801CE01B8DF6091550199
:1007100070915601CE01B2DF609153017091540186
:10072000CE01ACDF6091510170915201CE01A6DF84
:100730006091610170916201CE01A0DF60915F0163
:1007400070916001CE019ADF60915D0170915E0150
:10075000CE0194DF6091610170916201CE018EDF64
:1007600060915F0170916001CE0188DF60915B0153
:1007700070915C01CE0182DF64E170E080E090E086
:10078000C2D30150110909F0B5CFDF91CF911F916C
:100790000F910895CF92DF92EF92FF92CF93DF9364
:1007A000FC01C080D180E280F380C701B60166D72A
:1007B000CAE0D0E0CB01BE01BCD89B012B5F3F4F0C
:1007C00030936201209361019093600180935F01F7
:1007D00020E030E040E251E4C701B60132D84ED704
:1007E000CB01BE01A6D890935E0180935D0110926B
:1007F000560110925501DF91CF91FF90EF90DF905D
:10080000CF900895CF92DF92EF92FF92CF93DF9334
:10081000FC01C480D580E680F780C701B6012ED7E1
:10082000CAE0D0E0CB01BE0184D87093620160932E
:1008300061019093600180935F0120E030E040E22D
:1008400051E4C701B601FDD719D7CB01BE0171D85C
:1008500090935E0180935D018EE090E0909356014D
:1008600080935501DF91CF91FF90EF90DF90CF9073
:100870000895CF93DF93EC018DDFCE01DF91CF910F
:1008800031CFCF93DF93EC01BDDFCE01DF91CF916C
:1008900029CF0F931F93CF93DF938B01C0E0D0E05C
:1008A000C017D1073CF468EE73E080E090E02BD3F2
:1008B0002196F6CFDF91CF911F910F9108951F924E
:1008C0000F920FB60F9211248F939F9388ED90E0B3
:1008D0000FB6F894A8958093710091B5977F91BD5C
:1008E0000FBEA89581B58F7B81BD9F918F910F9091
:1008F0000FBE0F901F90189563FD02C088E001C0E5
:1009000088E298ED6770682B0FB6F894A8959093DD
:10091000710061BD0FBEA89581B5806481BD2F981F
:1009200085B7877E806185BF85B7806285BF8895E2
:1009300085B78F7D85BF80E00FB6F894A89590931A
:10094000710081B5877F81BD0FBE2F9A81B58F7BE6
:1009500081BD08950F931F93CF93DF938C01EB011B
:10096000C0348FE1D80730F069E0C801C5DFC0545A
:10097000DF41F6CFDF91CF911F910F9108950F9333
:100980001F93CF93DF93EB01CC0FDD1F00E010E04E
:100990000C171D0744F460E375E783EB91E0DADFA1
:1009A0000F5F1F4FF5CFDF91CF911F910F910895EA
:1009B000FF920F931F93CF93DF93FC010081C181BE
:1009C000D281F8948981F02EF0948F2189837894D4
:1009D0001DE7115009F182E090E0B9D288818023AF
:1009E000C1F3F8948A818F218A838981802B89833E
:1009F000789480EE91E0ABD2F8948981F822F98264
:100A000086E490E0A4D28881082311E009F010E088
:100A100078948AE991E09BD2812FDF91CF911F9149
:100A20000F91FF9008951F93CF93DF93FC011081E6
:100A3000C181D281812F809560FF11C0F8949A8185
:100A400089238A838981812B89838AE090E07FD200
:100A50008A81182B1A83789487E390E010C0F89469
:100A60009A8189238A838981812B898381E490E01B
:100A70006ED28A81182B1A83789485E090E0DF91FA
:100A8000CF911F9164C20F931F93CF93DF93FC010B
:100A90001081C181D281F8948981812B89838A81D7
:100AA000012F009580238A8383E090E050D28981D2
:100AB000082309838AE090E04AD2C881789485E3CC
:100AC00090E045D21C2381E009F480E0DF91CF91D2
:100AD0001F910F910895CF92DF92EF92FF920F93A3
:100AE0001F93CF93DF931F92CDB7DEB76C01E62E35
:100AF00008E010E0FF24F39461E08F2D8E2109F4CB
:100B000060E0C60149838FDFFF0C01501109498164
:100B10000115110589F7411115C0F894D6011196F8
:100B2000ED91FC91129791818C918095892381831D
:100B30001196ED91FC91129792818C918095892369
:100B4000828378940F90DF91CF911F910F91FF9046
:100B5000EF90DF90CF900895EF92FF920F931F9345
:100B6000CF93DF937C0108E010E0C0E0D1E0C70143
:100B70008ADF8111CD2BDD0F01501109C1F78C2FB8
:100B8000DF91CF911F910F91FF90EF900895CF9239
:100B9000DF92EF92FF920F931F93CF93DF931F92F9
:100BA000CDB7DEB78C01F62E40E065E5798393DFA3
:100BB000CF2C7981D72E760188E0E80EF11CF60162
:100BC00061916F0140E0C80186DFCE14DF04B9F700
:100BD0000F90DF91CF911F910F91FF90EF90DF90D9
:100BE000CF900895FC01138615861486DC011B96B0
:100BF00033961E92AE17BF07E1F708950F931F9328
:100C0000CF938C01C62F60E08C2FDAD1EC2FF0E06F
:100C1000E45CFE4FE491D801EC93CB3029F0C33073
:100C200018F089E390E002C086E390E0F801928337
:100C30008183C801CF911F910F91D4CFAF92BF9202
:100C4000CF92DF92EF92FF920F931F93CF93DF9398
:100C50001F92CDB7DEB75C01D62EE72EFC0185854D
:100C6000811106C0C5014983A3DE4981811106C0F7
:100C7000F50113861586148680E065C0442319F0BB
:100C800040E060EF02C040E06CEEC50124DF01E00F
:100C9000F12CC12C11E0C501F6DE682FC501698376
:100CA000F2DE6981613019F48130B9F431C04F2D21
:100CB00050E068131BC0F5018385181730F4E40F6A
:100CC000F51F8381802349F402C0181731F060E0DA
:100CD000193058F4F501148708C0F501EF0DF11D26
:100CE0008381802B838361E009C0C12EF501E40F6D
:100CF000F51F9381802F809589238383C50193DE1F
:100D00001F5F000F11F4F39401E0F7E0FF1518F6F0
:100D1000113408F4ADCFF501C386C11002C081E0E3
:100D20008587F5018381882309F4A2CFD501139625
:100D3000ED2DFE2D9501255F3F4F8D918193A217DB
:100D4000B307D9F781E00F90DF91CF911F910F91F9
:100D5000FF90EF90DF90CF90BF90AF900895DC01AF
:100D6000E0E0615038F08D91E827F0E0E45CFF4F5F
:100D7000E491F7CF8E2F089581110EC08FB7F894AC
:100D80007093B5016093B4018FBF85B78C7F482BFA
:100D900045BF8BB780648BBF0895811107C08BB7A7
:100DA0008F7B8BBF1092B5011092B40108951F92F2
:100DB0000F920FB60F9211242F933F934F935F938F
:100DC0006F937F938F939F93AF93BF93EF93FF9313
:100DD0008091B4019091B501892B29F0E091B40183
:100DE000F091B5010995FF91EF91BF91AF919F915E
:100DF0008F917F916F915F914F913F912F910F90C4
:100E00000FBE0F901F9018958EB5887F8EBD8FB541
:100E10008C7F81608FBD8EB5877E8EBD8EB5887FBD
:100E200083608EBD08951F920F920FB60F9211240A
:100E30002F933F938F939F93AF93BF938091B7016D
:100E40009091B801A091B901B091BA013091B60169
:100E500026E0230F2D3730F029E8230F0396A11D3C
:100E6000B11D03C00296A11DB11D2093B601809350
:100E7000B7019093B801A093B901B093BA018091E2
:100E8000BB019091BC01A091BD01B091BE01019642
:100E9000A11DB11D8093BB019093BC01A093BD0126
:100EA000B093BE01BF91AF919F918F913F912F91D0
:100EB0000F900FBE0F901F9018953FB7F894809138
:100EC000BB019091BC01A091BD01B091BE0122B7C0
:100ED00008B600FE05C02F3F19F00196A11DB11DF7
:100EE0003FBFBA2FA92F982F8827820F911DA11DD0
:100EF000B11DBC01CD0143E0660F771F881F991F0C
:100F00004A95D1F70895CF92DF92EF92FF92CF9357
:100F1000DF936B017C01D1DFEB01C114D104E1044B
:100F2000F10471F0CADF6C1B7D0B683E7340A8F3BF
:100F300081E0C81AD108E108F108C851DC4FEDCFB3
:100F4000DF91CF91FF90EF90DF90CF9008958330A5
:100F5000910528F0880F991F04970197F1F70895DC
:100F6000789480B7836080BF83B7877F83BF83B760
:100F7000887F836083BF89B7816089BF45DFE9ECE3
:100F8000F0E08081887F808380E18093670084EA3D
:100F9000809368008CEF80936600AAECB0E08C919F
:100FA0008C7F81608C938081877E80838081887F25
:100FB0008360808385B1887F866085B92F9A089584
:100FC000CF93DF93E82FF0E0E45CFE4F94918B30F9
:100FD00049F0833038F0EBE3F0E0AAE3B0E0C3E699
:100FE000D0E006C0E8E3F0E0A7E3B0E0C2E6D0E07E
:100FF000892F80952FB761110BC0F8949C9198238D
:101000009C9390819823908398818923888314C02E
:10101000623059F4F8943C9183238C938081892B1E
:101020008083E881E92BE88307C0F8943881832323
:101030008883EC91E92BEC932FBFDF91CF9108953A
:10104000CF93DF93E82FF0E0E45CFE4FE4918B3028
:1010500079F1833038F091E0863029F480B78F73CE
:1010600080BF21C092E0853021F480B78F7C80BFA3
:1010700018C0843019F48FB58F7304C0873021F401
:101080008FB58F7C8FBD0DC0823021F48091CA0056
:101090008F7305C0833029F48091CA008F7C8093C0
:1010A000CA00913029F4CBE3D0E0A3E6B0E004C05D
:1010B000C8E3D0E0A2E6B0E08E2F809561110AC0AF
:1010C0002FB7F8949881982398839C9189238C93C7
:1010D0002FBF09C09FB7F8942881E22BE8832C9199
:1010E00082238C939FBFDF91CF910895DC011496EA
:1010F000ED91FC91159780A191A122A133A1821BB2
:10110000930B8F7199270895DC011496ED91FC9152
:10111000159782A193A120A131A12817390729F0A1
:10112000E80FF91F808190E008958FEF9FEF0895F9
:10113000DC011496ED91FC91159722A133A180A1B9
:1011400091A18217930761F0DF01A20FB31F8C9169
:101150002F5F3F4F2F71332733A322A390E00895D1
:101160008FEF9FEF0895DC011496ED91FC91159798
:1011700082A193A191A380A30895FC01A285B385C8
:1011800081E090E0058802C0880F991F0A94E2F779
:101190002C9130E028233923232BD1F30684F785C3
:1011A000E02D608381E090E008951F920F920FB6CA
:1011B0000F9211242F933F934F936F937F938F93AD
:1011C0009F93EF93FF9340918000209131023091E3
:1011D0003202C90101968F71992760913302709193
:1011E00034028617970741F0F901EF5EFD4F408307
:1011F0009093320280933102FF91EF919F918F91F2
:101200007F916F914F913F912F910F900FBE0F9053
:101210001F9018951F920F920FB60F9211242F93C3
:101220003F934F936F937F938F939F93EF93FF938E
:101230004091900020910D0230910E02C90101965B
:101240008F71992760910F0270911002861797078E
:1012500041F0F901E351FE4F408390930E028093D9
:101260000D02FF91EF919F918F917F916F914F911F
:101270003F912F910F900FBE0F901F9018958F9256
:101280009F92AF92BF92FF920F931F93CF93DF93E2
:10129000EC014A015B01F22EEA85FB8501E010E0DA
:1012A000C8010E8802C0880F991F0A94E2F7808354
:1012B00060E874E88EE190E0A50194014DD3DA0175
:1012C000C9010197A109B109B695A7959795879589
:1012D000EE81FF81292F33272083E885F9858083DC
:1012E000E889F989F082EC85FD852081C8010A88AA
:1012F00002C0880F991F0A94E2F7822B8083EC8545
:10130000FD852081C8010B8802C0880F991F0A94AF
:10131000E2F7822B8083EC85FD8580810C8802C0FA
:10132000000F111F0A94E2F7082B0083DF91CF9181
:101330001F910F91FF90BF90AF909F908F90089555
:10134000E6EDF1E01382128264E271E07183608362
:1013500081E192E09583848382E890E0978386839D
:1013600081E890E09187808786E890E09387828784
:1013700085E890E09587848784E890E0918B808B66
:1013800080E890E09787868744E0428B33E0338B98
:1013900027E0248B95E0958B81E0868BEFEBF1E0E5
:1013A00013821282718360836DEE71E075836483B2
:1013B00062E970E07783668361E970E07187608736
:1013C00066E970E07387628765E970E07587648716
:1013D00064E970E0718B608B60E970E07787668705
:1013E000428B338B248B958B868B0895CF92DF9223
:1013F000EF92FF920F931F93CF93DF936C01EB015A
:101400007B01E40EF51E00E010E0CE15DF0561F073
:101410006991D601ED91FC910190F081E02DC6011A
:101420000995080F191FF1CFC801DF91CF911F91C6
:101430000F91FF90EF90DF90CF90089561157105A7
:1014400079F0FB0101900020E9F73197AF01461BCD
:10145000570BDC01ED91FC910280F381E02D0994A2
:1014600080E090E00895EACFDC01ED91FC910190DD
:10147000F081E02D09940F931F93CF93DF93EC013C
:101480006DE0F2DF8C016AE0CE01EEDF800F911F8C
:10149000DF91CF911F910F9108950F931F93CF93D9
:1014A000DF93EC01CBDF8C01CE01E5DF800F911FD4
:1014B000DF91CF911F910F9108958F929F92AF92DC
:1014C000BF92CF92DF92EF92FF920F931F93CF9331
:1014D000DF93CDB7DEB7A1970FB6F894DEBF0FBE8E
:1014E000CDBF6C01142FE52FCB01022F19A22230A2
:1014F00008F40AE07E0121E2E20EF11C802E912C1C
:10150000A12CB12C612F7E2FA501940125D2802F13
:10151000622F06D2181B81E0E81AF1081A3014F481
:10152000105D01C0195CF7011083122FE32FCA016F
:10153000232B242B252B31F7B701C6017FDFA19682
:101540000FB6F894DEBF0FBECDBFDF91CF911F91D4
:101550000F91FF90EF90DF90CF90BF90AF909F9052
:101560008F9008952115310541F4DC01ED91FC9136
:101570000190F081E02D642F09949FCF0F931F936A
:10158000CF93DF93EC019A01AB0160E070E0EADFFA
:101590008C01CE0170DF800F911FDF91CF911F91E1
:1015A0000F910895DDDC22D63AD7FECF0CD00FC1C3
:1015B00007D140F0FED030F021F45F3F19F0F0C0C9
:1015C000511139C1F3C014D198F39923C9F35523AC
:1015D000B1F3951B550BBB27AA2762177307840726
:1015E00038F09F5F5F4F220F331F441FAA1FA9F3DC
:1015F00033D00E2E3AF0E0E830D091505040E695CE
:10160000001CCAF729D0FE2F27D0660F771F881F2E
:10161000BB1F261737074807AB07B0E809F0BB0B1D
:10162000802DBF01FF2793585F4F2AF09E3F510541
:1016300068F0B6C000C15F3FECF3983EDCF38695DE
:1016400077956795B795F7959F5FC9F7880F911DB7
:101650009695879597F90895E1E0660F771F881FA3
:10166000BB1F621773078407BA0720F0621B730B56
:10167000840BBA0BEE1F88F7E095089504D06894A8
:10168000B111D9C00895BCD088F09F5790F0B92F00
:101690009927B751A0F0D1F0660F771F881F991FC7
:1016A0001AF0BA95C9F712C0B13081F0C3D0B1E0D9
:1016B0000895C0C0672F782F8827B85F39F0B93FE9
:1016C000CCF3869577956795B395D9F73EF49095C9
:1016D0008095709561957F4F8F4F9F4F0895E89447
:1016E00009C097FB3EF490958095709561957F4F6A
:1016F0008F4F9F4F9923A9F0F92F96E9BB27939518
:10170000F695879577956795B795F111F8CFFAF427
:10171000BB0F11F460FF1BC06F5F7F4F8F4F9F4F58
:1017200016C0882311F096E911C0772321F09EE8B6
:10173000872F762F05C0662371F096E8862F70E01C
:1017400060E02AF09A95660F771F881FDAF7880FF6
:101750009695879597F90895990F0008550FAA0B4C
:10176000E0E8FEEF16161706E807F907C0F01216B4
:101770001306E407F50798F0621B730B840B950BB7
:1017800039F40A2661F0232B242B252B21F408950C
:101790000A2609F4A140A6958FEF811D811D0895A9
:1017A00097F99F6780E870E060E008959FEF80EC14
:1017B000089500240A9416161706180609060895B7
:1017C00000240A9412161306140605060895092E1D
:1017D0000394000C11F4882352F0BB0F40F4BF2B8C
:1017E00011F460FF04C06F5F7F4F8F4F9F4F0895CC
:1017F00057FD9058440F551F59F05F3F71F04795C2
:10180000880F97FB991F61F09F3F79F087950895A6
:10181000121613061406551FF2CF4695F1DF08C0C5
:10182000161617061806991FF1CF869571056105E2
:1018300008940895E894BB2766277727CB0197F98A
:1018400008950AD0C4CFB5DF28F0BADF18F0952389
:1018500009F0A6CFABCFEFCFCBDFA8F39923D9F315
:101860005523C9F3950F50E0551FAA27EE27FF27F0
:10187000BB2700240894679520F4E20FF31FB41FE0
:101880000A1E220F331F441FAA1F6695A9F77795DA
:1018900030F4F30FB41F0A1E121E08F46395330FC1
:1018A000441FAA1F221F769599F7879520F4B40F3D
:1018B0000A1E121E631F440FAA1F221F331F869584
:1018C000A9F7862F712D602D11249F5750408AF063
:1018D000E1F088234AF0EE0FFF1FBB1F661F771F42
:1018E000881F91505040A9F79E3F510570F058CF86
:1018F000A2CF5F3FECF3983EDCF386957795679532
:10190000B795F795E7959F5FC1F7FE2B880F911D5F
:101910009695879597F908951FDF880B990B089581
:10192000002480FD060E660F11F08695D1F7802DFC
:10193000089597FB072E16F4009406D077FD08D083
:1019400049D007FC05D03EF4909581959F4F0895AE
:10195000709561957F4F0895A1E21A2EAA1BBB1BBB
:10196000FD010DC0AA1FBB1FEE1FFF1FA217B3076B
:10197000E407F50720F0A21BB30BE40BF50B661F81
:10198000771F881F991F1A9469F760957095809545
:1019900090959B01AC01BD01CF010895052E97FBE9
:1019A00016F400940FD057FD05D0D6DF07FC02D007
:1019B00046F408C050954095309521953F4F4F4FC4
:1019C0005F4F089590958095709561957F4F8F4FEB
:1019D0009F4F0895AA1BBB1B51E107C0AA1FBB1F45
:1019E000A617B70710F0A61BB70B881F991F5A95AB
:1019F000A9F780959095BC01CD010895EE0FFF1FCA
:101A00000590F491E02D0994AEE0B0E0E9E0FDE04E
:101A10009AC20D891E8986E08C831A8309838FEF11
:101A20009FE79E838D83AE01475E5F4F6F89788D00
:101A3000CE01019609D02F813885F801E20FF31FFE
:101A400010822E96E4E09BC2ACE0B0E0E9E2FDE05B
:101A50006CC27C016B018A01FC01178216828381B2
:101A600081FFB0C1CE0101964C01F7019381F601CF
:101A700093FD859193FF81916F01882309F49EC1A5
:101A8000853239F493FD859193FF81916F01853201
:101A900021F4B70190E0B1D1E8CF512C312C20E0F6
:101AA0002032A0F48B3269F030F4803259F0833266
:101AB00069F420612CC08D3239F0803339F4216013
:101AC00026C02260246023C0286021C027FD27C0D3
:101AD00030ED380F3A3078F426FF06C0852D6AE0E5
:101AE0001FDF582E530E13C0832D6AE019DF382EE6
:101AF000330E20620CC08E3221F426FD5FC12064BB
:101B000006C08C3611F4206802C0883641F4F60114
:101B100093FD859193FF81916F018111C1CF982F22
:101B20009F7D9554933028F40C5F1F4FFFE3F9839A
:101B30000DC0833631F0833771F0833509F057C01B
:101B400021C0F801808189830E5F1F4F4424439494
:101B5000512C540114C03801F2E06F0E711CF801D1
:101B6000A080B18026FF03C0652D70E002C06FEF3A
:101B70007FEFC5012C8736D12C0183012C852F776F
:101B8000222E16C03801F2E06F0E711CF801A08001
:101B9000B18026FF03C0652D70E002C06FEF7FEFBC
:101BA000C5012C8714D12C012C852068222E83019D
:101BB00023FC19C0832D90E048165906A0F4B70104
:101BC00080E290E01AD13A94F5CFF50127FC859197
:101BD00027FE81915F01B70190E00FD131103A9457
:101BE000F1E04F1A51084114510479F7DEC08436F0
:101BF00011F0893631F5F80127FF07C06081718146
:101C0000828193810C5F1F4F08C060817181072E14
:101C1000000C880B990B0E5F1F4F2F76722E97FFCB
:101C200009C090958095709561957F4F8F4F9F4F1C
:101C30002068722E2AE030E0A40117D1A82EA8183F
:101C400043C0853729F42F7EB22E2AE030E025C02C
:101C5000F22FF97FBF2E8F36C1F018F4883579F056
:101C6000ADC0803719F0883721F0A8C02F2F206130
:101C7000B22EB4FE0DC08B2D8460B82E09C024FF97
:101C80000AC09F2F9660B92E06C028E030E005C03C
:101C900020E130E002C020E132E0F801B7FE07C0E9
:101CA00060817181828193810C5F1F4F06C06081CA
:101CB000718180E090E00E5F1F4FA401D6D0A82E66
:101CC000A818FB2DFF777F2E76FE0BC0372D3E7FA9
:101CD000A51450F474FE0AC072FC08C0372D3E7E75
:101CE00005C0BA2C372D03C0BA2C01C0B52C34FF67
:101CF0000DC0FE01EA0DF11D8081803311F4397EA3
:101D000009C032FF06C0B394B39404C0832F867811
:101D100009F0B39433FD12C030FF06C05A2CB3143F
:101D200018F4530C5B18B32CB31460F4B70180E2C1
:101D300090E03C8762D0B3943C85F6CFB31410F4A6
:101D40003B1801C0312C34FF11C0B70180E390E093
:101D50003C8753D03C8532FF16C031FD03C088E775
:101D600090E002C088E590E0B7010CC0832F867830
:101D700051F031FF02C08BE201C080E237FD8DE2FD
:101D8000B70190E03AD0A51430F4B70180E390E0B9
:101D900034D05A94F8CFAA94F401EA0DF11D808151
:101DA000B70190E02AD0A110F6CF332009F45DCE20
:101DB000B70180E290E021D03A94F7CFF701868115
:101DC000978102C08FEF9FEF2C96E2E1CAC0FC0121
:101DD0000590615070400110D8F7809590958E0F56
:101DE0009F1F0895FC016150704001900110D8F7C9
:101DF000809590958E0F9F1F08950F931F93CF93FB
:101E0000DF93FB01238121FD03C08FEF9FEF28C0EB
:101E100022FF16C04681578124813581421753071E
:101E200044F4A081B1819D012F5F3F4F3183208316
:101E30008C93268137812F5F3F4F3783268310C0D5
:101E4000EB01092F182F0084F185E02D0995892BCE
:101E5000E1F68E819F8101969F838E83812F902F43
:101E6000DF91CF911F910F910895FA01AA27283091
:101E700061F1203191F1E8946F936E7F6E5F7F4F37
:101E80008F4F9F4FAF4FB1E040D0B4E03ED0670FCF
:101E9000781F891F9A1FA11D680F791F8A1F911D26
:101EA000A11D6A0F711D811D911DA11D22D009F474
:101EB00068943F91062E000C3019000C000C30196C
:101EC000305D3193CEF6CF010895462F4770405DC7
:101ED0004193B3E00FD0C9F7F6CF462F4F70405D66
:101EE0004A3318F0495D31FD4052419302D0A9F7C1
:101EF000EACFB4E0A6959795879577956795BA95BB
:101F0000C9F700976105710508959B01AC010A2E80
:101F100006945795479537952795BA95C9F7620F57
:101F2000731F841F951FA01D08952F923F924F92FB
:101F30005F926F927F928F929F92AF92BF92CF9259
:101F4000DF92EF92FF920F931F93CF93DF93CDB762
:101F5000DEB7CA1BDB0B0FB6F894DEBF0FBECDBFDA
:101F600009942A88398848885F846E847D848C84AB
:101F70009B84AA84B984C884DF80EE80FD800C81B4
:101F80001B81AA81B981CE0FD11D0FB6F894DEBF97
:0C1F90000FBECDBFED010895F894FFCF07
:101F9C00AA05FA00CF03486921002D20776F6B65E5
:101FAC002075702E005663635F313A20002578004F
:101FBC0000000000BD08F609760898088408B308EC
:00000001FF
